S012000043616C63756C61746F722E7372656308
S11300000C94AB000C94C8000C94C8000C94C80069
S11300100C94C8000C94C8000C94C8000C94C8003C
S11300200C94C8000C94C8000C94C8000C94C8002C
S11300300C94C8000C94C8000C94C8000C94C8001C
S11300400C94C8000C94C8000C94C8000C94C8000C
S11300500C94C8006E616E00696E660000407A10F0
S1130060F35A00A0724E18090010A5D4E80000E865
S11300707648170000E40B54020000CA9A3B0000C3
S113008000E1F505000080969800000040420F0052
S11300900000A08601000000102700000000E80313
S11300A0000000006400000000000A0000000000DE
S11300B00100000000002C76D888DC674F0823DF9D
S11300C0C1DFAE59E1B1B796E5E3E453C63AE65170
S11300D0997696E8E6C28426EB898C9B62ED407C97
S11300E06FFCEFBC9C9F40F2BAA56FA5F490055A33
S11300F02AF75C936B6CF9676DC11BFCE0E40D4758
S1130100FEF520E6B500D0ED902E0300943577057A
S11301100080841E080000204E0A000000C80C3332
S11301203333330F986E12831141EF8D2114893BC1
S1130130E65516CFFEE6DB18D1844B381BF77C1D41
S1130140901DA4BBE424203284725E228100C9F194
S113015024ECA1E53D2711241FBECFE5D8E0DEBF86
S1130160CDBF10E0A0E6B0E0EEE7F5E302C00590F5
S11301700D92A639B107D9F720E0A6E9B0E001C095
S11301801D92AA3DB207E1F70E94CA000C94BD1A61
S11301900C9400002F923F924F925F926F927F9245
S11301A08F929F92AF92BF92CF92DF92EF92FF9283
S11301B00F931F93CF93DF93CDB7DEB7AA970FB6F4
S11301C0F894DEBF0FBECDBF0E9404090E94E00771
S11301D081E690E00E94E00D60E081E00E945F0E05
S11301E087E690E00E94E00D1092C40079C00E945E
S11301F0810E80E090E0AAEFB3E489879A87AB8709
S1130200BC8720E030E04AE755E469857A858B8530
S11302109C850E949813DC01CB018D879E87AF8754
S1130220B88B20E030E040E85FE36D857E858F8504
S113023098890E94241288232CF481E090E09A8B00
S1130240898B3FC020E03FEF4FE757E46D857E8503
S11302508F8598890E94931318164CF520E030E09E
S113026040E251E469857A858B859C850E949813C8
S1130270DC01CB01BC01CD010E949B12DC01CB014E
S11302809A8B898B0FC080E991E09C8B8B8B8B8937
S11302909C890197F1F79C8B8B8B89899A890197AB
S11302A09A8B898B89899A89892B69F714C06D8502
S11302B07E858F8598890E949B12DC01CB019A8BE5
S11302C0898B89899A899E8B8D8B8D899E890197CB
S11302D0F1F79E8B8D8B8091C4008F5F8093C40057
S11302E08091C400853008F482CF1092C40080E06D
S11302F090E0A8ECB2E489839A83AB83BC8320E0CA
S113030030E04AE755E469817A818B819C810E94BF
S11303109813DC01CB018F8B988FA98FBA8F20E0C3
S113032030E040E85FE36F89788D898D9A8D0E9473
S1130330241288232CF481E090E09C8F8B8F3FC0A3
S113034020E03FEF4FE757E46F89788D898D9A8DD0
S11303500E94931318164CF520E030E040E251E47B
S113036069817A818B819C810E949813DC01CB0185
S1130370BC01CD010E949B12DC01CB019C8F8B8FB1
S11303800FC080E991E09E8F8D8F8D8D9E8D01979A
S1130390F1F79E8F8D8F8B8D9C8D01979C8F8B8F0A
S11303A08B8D9C8D892B69F714C06F89788D898D0D
S11303B09A8D0E949B12DC01CB019C8F8B8F8B8DBD
S11303C09C8D98A38F8F8F8D98A10197F1F798A397
S11303D08F8F0E94540E40E150E060E070E08EE99F
S11303E090E00E94CB198091AE00682F80E00E94BB
S11303F05F0E0E9428088093AF008091AF0088238D
S113040091F381E0809360008091AE00813160F0CF
S113041040E150E060E070E08EE990E00E94CB198A
S11304201092AE000E94540E8091AF008D3339F0CB
S11304300E94540E8091AF000E94BC095BC280915F
S1130440AF008D3309F056C268EB70E08EE990E09E
S11304500E948A058091C500882F90E08B32910517
S113046079F08C32910524F48A9709F49FC03AC13B
S11304708D32910509F44FC08F9709F4EAC032C157
S1130480A090B000B090B100C090B200D090B30082
S1130490E090B400F090B5000091B6001091B70060
S11304A02090B8003090B9004090BA005090BB0042
S11304B06090BC007090BD008090BE009090BF0022
S11304C02A2D3B2D4C2D5D2D6E2D7F2D802F912FB0
S11304D0A22CB32CC42CD52CE62CF72C082D192DCA
S11304E00E94B218A22EB32EC42ED52EE62EF72EBD
S11304F0082F192FA0929600B0929700C0929800EE
S1130500D0929900E0929A00F0929B0000939C0094
S113051010939D00E7C0A090B000B090B100C090CF
S1130520B200D090B300E090B400F090B500009118
S1130530B6001091B7002090B8003090B9004090F8
S1130540BA005090BB006090BC007090BD008090D9
S1130550BE009090BF002A2D3B2D4C2D5D2D6E2D9D
S11305607F2D802F912FA22CB32CC42CD52CE62CBC
S1130570F72C082D192D0E94BB18A22EB32EC42EC1
S1130580D52EE62EF72E082F192FA0929600B092A2
S11305909700C0929800D0929900E0929A00F0924D
S11305A09B0000939C0010939D009CC02090B00081
S11305B03090B1004090B2005090B3006090B4000D
S11305C07090B5008090B6009090B7002091B8006C
S11305D03091B9004091BA005091BB006091BC00C9
S11305E07091BD008091BE009091BF00A22EB32EE9
S11305F0C42ED52EE62EF72E082F192F222D332D9B
S1130600442D552D662D772D882D992D0E94821706
S1130610A22EB32EC42ED52EE62EF72E082F192F78
S11306202A2D3B2D4C2D5D2D6E2D7F2D802F912F4E
S1130630209396003093970040939800509399002C
S113064060939A0070939B0080939C0090939D000C
S113065049C0A090B000B090B100C090B200D0905A
S1130660B300E090B400F090B5000091B600109192
S1130670B7002A2D3B2D4C2D5D2D6E2D7F2D802F07
S1130680912F0E94CA123B014C01A090B800B09077
S1130690B900C090BA00D090BB00E090BC00F090CC
S11306A0BD000091BE001091BF002A2D3B2D4C2DA2
S11306B05D2D6E2D7F2D802F912F0E94CA12DC019B
S11306C0CB019C01AD01C401B3010E942912DC01DC
S11306D0CB018093C0009093C100A093C200B0935B
S11306E0C300000060E081E00E945F0E8DE30E9481
S11306F0BC090E94540E8091C5008F3269F4809128
S1130700C0009091C100A091C200B091C300BC018F
S1130710CD010E940C0E1CC0809096009090970012
S1130720A0909800B0909900C0909A00D0909B003F
S1130730E0909C00F0909D0006EC10E0282D392DEF
S11307404A2D5B2D6C2D7D2D8E2D9F2D0E949406A0
S113075086EC90E00E94E00D80E090E0A0E2B1E43D
S11307608D839E83AF83B88720E030E04AE755E469
S11307706D817E818F8198850E949813DC01CB0165
S113078089A39AA3ABA3BCA320E030E040E85FE3D5
S113079069A17AA18BA19CA10E94241288232CF424
S11307A081E090E09EA38DA33FC020E03FEF4FE7A0
S11307B057E469A17AA18BA19CA10E9493131816F6
S11307C04CF520E030E040E251E46D817E818F8180
S11307D098850E949813DC01CB01BC01CD010E94D5
S11307E09B12DC01CB019EA38DA30FC080E991E095
S11307F098A78FA38FA198A50197F1F798A78FA326
S11308008DA19EA101979EA38DA38DA19EA1892B4D
S113081069F714C069A17AA18BA19CA10E949B12C3
S1130820DC01CB019EA38DA38DA19EA19AA789A7CC
S113083089A59AA50197F1F79AA789A704C00E94F0
S113084028088093AF008091AF008334C1F71092E1
S1130850AE00109296001092970010929800109299
S1130860990010929A0010929B0010929C00109292
S11308709D001092C0001092C1001092C20010920C
S1130880C3001092C4001092C5001092AF000E94E1
S1130890540E40E150E060E070E08EE990E00E9488
S11308A0CB1940E150E060E070E086EC90E00E94FB
S11308B0CB191092B0001092B1001092B2001092B5
S11308C0B3001092B4001092B5001092B6001092CA
S11308D0B7001092B8001092B9001092BA001092AA
S11308E0BB001092BC001092BD001092BE0010928A
S11308F0BF0079CD8091AF008B3261F08091AF0061
S11309008D3241F08091AF008F3221F08091AF00A1
S11309108A3219F50E94540E8091AF000E94BC09DE
S11309208091AF008093C50060EB70E08EE990E0A9
S11309300E948A051092AF00109260008091AE0070
S11309408F5F8093AE001092C40040E150E060E0FD
S113095070E08EE990E00E94CB19809160008130B4
S113096009F041CD8091C400882F90E02091AF0020
S113097082569F4FFC0120838091C400882F90E011
S1130980019682569F4FFC0110828091C4008F5FB4
S11309908093C4008091AE008F5F8093AE0023CD1E
S11309A02F923F924F925F926F927F928F929F927B
S11309B0AF92BF92CF92DF92EF92FF920F931F9369
S11309C0CF93DF93CDB7DEB7A2970FB6F894DEBF0F
S11309D00FBECDBF2B873C874D875E876F87788B93
S11309E0898B9A8BAB8ABC8ACD8ADE8AEF8AF88E91
S11309F0098F1A8F81E089831A821B821C821D82CF
S1130A001E821F82188681E090E09A87898727C01A
S1130A10AB84BC84CD84DE84EF84F88809891A8988
S1130A2029813A814B815C816D817E818F8198859A
S1130A300E948217A22EB32EC42ED52EE62EF72E98
S1130A40082F192FA982BA82CB82DC82ED82FE8222
S1130A500F83188789859A8501969A87898789855E
S1130A609A859C8F8B8F892F880F880B8D8F8E8F03
S1130A708F8F88A389A38AA32B883C884D885E889E
S1130A806F88788C898C9A8C2B8D3C8D4D8D5E8DE6
S1130A906F8D78A189A19AA1A22CB32CC42CD52C3A
S1130AA0E62CF72C082D192D0E94C41809F008F41F
S1130AB0AFCF29813A814B815C816D817E818F81A9
S1130AC09885A22EB32EC42ED52EE62EF72E082FEF
S1130AD0192F2A2D3B2D4C2D5D2D6E2D7F2D802F12
S1130AE0912FA2960FB6F894DEBF0FBECDBFDF9153
S1130AF0CF911F910F91FF90EF90DF90CF90BF9017
S1130B00AF909F908F907F906F905F904F903F90A9
S1130B102F9008952F923F924F925F926F927F92FF
S1130B208F929F92AF92BF92CF92DF92EF92FF92F9
S1130B300F931F93CF93DF93CDB7DEB767970FB6AD
S1130B40F894DEBF0FBECDBF9D838C837F836E83FD
S1130B508C819D810E94DD198B8319821A828B817D
S1130B60882359F08981882F90E02C813D81820F60
S1130B70931FFC018081803399F48E819F81FC0155
S1130B801082FC011182FC011282FC011382FC011F
S1130B901482FC011582FC011682FC011782AAC092
S1130BA08B8181508A83A2C08981882F90E02C8117
S1130BB03D81820F931FFC018081882F90E0C097B4
S1130BC099878887892F880F880B8A878B878C87DA
S1130BD08D878E878F878A81888B880F880B898B76
S1130BE08A8B8B8B8C8B8D8B8E8B8F8BA888B98803
S1130BF0CA88DB88EC88FD880E891F892AE030E0EA
S1130C0040E050E060E070E080E090E00E94D004BA
S1130C10222E332E442E552E662E772E882E992E74
S1130C20A22CB32CC42CD52CE62CF72C082D192D72
S1130C30288539854A855B856C857D858E859F856C
S1130C400E948217A22EB32EC42ED52EE62EF72E86
S1130C50082F192F2A2C3B2C4C2C5D2C6E2C7F2C0E
S1130C60802E912E8E819F81FC01A080FC01B18099
S1130C70FC01C280FC01D380FC01E480FC01F5800E
S1130C80FC010681FC0117812A2D3B2D4C2D5D2D85
S1130C906E2D7F2D802F912FA22CB32CC42CD52CFC
S1130CA0E62CF72C082D192D0E94B218A22EB32E73
S1130CB0C42ED52EE62EF72E082F192F8E819F8154
S1130CC0FC01A082FC01B182FC01C282FC01D3823E
S1130CD0FC01E482FC01F582FC010683FC0117831C
S1130CE089818F5F89838A8181508A838A8188235D
S1130CF00CF05ACF000067960FB6F894DEBF0FBE13
S1130D00CDBFDF91CF911F910F91FF90EF90DF90B6
S1130D10CF90BF90AF909F908F907F906F905F9097
S1130D204F903F902F9008952F923F924F925F9251
S1130D306F927F928F929F92AF92BF92CF92DF92E7
S1130D40EF92FF920F931F93CF93DF93CDB7DEB74C
S1130D50A2970FB6F894DEBF0FBECDBF298F3A8F8E
S1130D604B8F5C8F6D8F7E8F8F8F98A31AA309A3EF
S1130D7024E1CE010396FC01322F11923A95E9F752
S1130D8019821A8280917C0090917D00988F8F8BBC
S1130D906BC0298C3A8C4B8C5C8C6D8C7E8C8F8CCC
S1130DA098A00F2EFAE0AF2EF02DB12CC12CD12C2F
S1130DB0E12CF12C00E010E0222D332D442D552D93
S1130DC0662D772D882D992D0E940C18A22EB32EF6
S1130DD0C42ED52EE62EF72E082F192F2A2D3B2DA3
S1130DE04C2D5D2D6E2D7F2D802F912F2A8389818F
S1130DF0882F90E02A8140E3420F9E012D5F3F4FF0
S1130E00820F931FFC01408389818F5F8983298C22
S1130E103A8C4B8C5C8C6D8C7E8C8F8C98A00F2EB6
S1130E20FAE0AF2EF02DB12CC12CD12CE12CF12CF9
S1130E3000E010E0222D332D442D552D662D772D05
S1130E40882D992D0E94DD17A22EB32EC42ED52EE7
S1130E50E62EF72E082F192FA98EBA8ECB8EDC8E94
S1130E60ED8EFE8E0F8F18A3A98CBA8CCB8CDC8CE4
S1130E70ED8CFE8C0F8D18A12A2D3B2D4C2D5D2D54
S1130E806E2D7F2D802F912FA0E00E94CD18B1F000
S1130E90A98CBA8CCB8CDC8CED8CFE8C0F8D18A1BC
S1130EA02A2D3B2D4C2D5D2D6E2D7F2D802F912FC6
S1130EB0A0E00E94CD1811F00CF06BCFA98CBA8C75
S1130EC0CB8CDC8CED8CFE8C0F8D18A12A2D3B2D48
S1130ED04C2D5D2D6E2D7F2D802F912FA0E00E9433
S1130EE0CD18C4F5CE01479642E050E060E070E0D2
S1130EF00E94CB19CE0147969C01F9010190002074
S1130F00E9F7CF010197821B930B9E01295E3F4FA6
S1130F10820F931F2DE230E0FC0131832083298D61
S1130F203A8D4B8D5C8D6D8D7E8D8F8D98A10E9439
S1130F306B18A22EB32EC42ED52EE62EF72E082F14
S1130F40192FA98EBA8ECB8EDC8EED8EFE8E0F8F6E
S1130F5018A31ECF8F898B3229F4CE0103960E94E9
S1130F60F1190CC09E01295E3F4FCE010396B901D1
S1130F700E94D219CE0103960E94F1199E012D5FA1
S1130F803F4F89A19AA1B9010E94D2190000A296EB
S1130F900FB6F894DEBF0FBECDBFDF91CF911F9186
S1130FA00F91FF90EF90DF90CF90BF90AF909F9004
S1130FB08F907F906F905F904F903F902F90089507
S1130FC0CF93DF93CDB7DEB761E084E10E948C0E4E
S1130FD061E085E10E948C0E61E086E10E948C0E46
S1130FE061E087E10E948C0E62E088E10E948C0E31
S1130FF062E089E10E948C0E62E08AE10E948C0E1C
S113100062E08BE10E948C0E61E088E10E941C1179
S113101061E089E10E941C1161E08AE10E941C11D7
S113102061E08BE10E941C1161E084E10E94940F55
S113103061E085E10E94940F61E086E10E94940FD3
S113104061E087E10E94940F0000DF91CF91089541
S1131050CF93DF93CDB7DEB7A2970FB6F894DEBF78
S11310600FBECDBF80E1EFE7F0E0DE0153960190C3
S11310700D928A95E1F719821A821B8281E08C8392
S113108084E18983B3C062E089810E94940F88E17E
S11310908A83A1C08A810E949C108C838C818823BE
S11310A009F096C080E090E0A0E2B1E48D839E83D5
S11310B0AF83B88720E030E04AE755E46D817E8154
S11310C08F8198850E949813DC01CB0189879A87C8
S11310D0AB87BC8720E030E040E85FE369857A8530
S11310E08B859C850E94241288232CF481E090E057
S11310F09E878D873FC020E03FEF4FE757E4698527
S11311007A858B859C850E94931318164CF520E0F4
S113111030E040E251E46D817E818F8198850E94A8
S11311209813DC01CB01BC01CD010E949B12DC01B0
S1131130CB019E878D870FC080E991E0988B8F87C4
S11311408F8598890197F1F7988B8F878D859E8578
S113115001979E878D878D859E85892B69F714C09D
S113116069857A858B859C850E949B12DC01CB0165
S11311709E878D878D859E859A8B898B89899A898F
S11311800197F1F79A8B898B8A810E949C1088239E
S1131190F9F400008A810E949C108823D9F3898184
S11311A0882F90E09C01245131098A81882F90E096
S11311B04897220F331F220F331FAE014F5F5F4F3B
S11311C0240F351F820F931F4296FC0180818B836D
S11311D08A818F5F8A838A818C3108F45BCF61E0D6
S11311E089810E94940F89818F5F898389818831E5
S11311F008F449CF8B81A2960FB6F894DEBF0FBED8
S1131200CDBFDF91CF910895CF93DF93CDB7DEB7F4
S11312102E970FB6F894DEBF0FBECDBF61E08EE00F
S11312200E948C0E61E08FE00E948C0E61E080E1F0
S11312300E948C0E61E081E10E948C0E61E08FE1DE
S11312400E948C0E61E08EE10E948C0E61E081E2CE
S11312500E948C0E62E081E20E94940F80E090E094
S1131260A8ECB2E489839A83AB83BC8320E030E0AA
S11312704AE755E469817A818B819C810E949813A5
S1131280DC01CB018D839E83AF83B88720E030E0FF
S113129040E85FE36D817E818F8198850E942412EE
S11312A088232CF481E090E09A8789873FC020E06E
S11312B03FEF4FE757E46D817E818F8198850E94CF
S11312C0931318164CF520E030E040E251E46981B4
S11312D07A818B819C810E949813DC01CB01BC0133
S11312E0CD010E949B12DC01CB019A8789870FC034
S11312F080E991E09C878B878B859C850197F1F72A
S11313009C878B8789859A8501979A8789878985A0
S11313109A85892B69F714C06D817E818F819885A8
S11313200E949B12DC01CB019A87898789859A8563
S11313309E878D878D859E850197F1F79E878D8782
S113134083E30E94CE0B82E30E94CE0B88E20E94CC
S1131350CE0B8CE00E94CE0B81E00E94CE0B82E08B
S11313600E94CE0B00002E960FB6F894DEBF0FBE7F
S1131370CDBFDF91CF910895CF93DF93CDB7DEB783
S1131380E9970FB6F894DEBF0FBECDBF89AF61E019
S11313908FE10E94940F8BE390E029AD422F407FB0
S11313A02BE330E0F90120812F70242BFC012083F2
S11313B061E08EE10E94940F80E090E0A0E8BFE33A
S11313C089839A83AB83BC8320E030E04AE755E409
S11313D069817A818B819C810E949813DC01CB0105
S11313E08FA798ABA9ABBAAB20E030E040E85FE34D
S11313F06FA578A989A99AA90E94241288232CF49C
S113140081E090E09CAB8BAB3FC020E03FEF4FE727
S113141057E46FA578A989A99AA90E94931318166D
S11314204CF520E030E040E251E469817A818B811F
S11314309C810E949813DC01CB01BC01CD010E9468
S11314409B12DC01CB019CAB8BAB0FC080E991E01C
S11314509EAB8DAB8DA99EA90197F1F79EAB8DAB89
S11314608BA99CA901979CAB8BAB8BA99CA9892BBD
S113147069F714C06FA578A989A99AA90E949B123B
S1131480DC01CB019CAB8BAB8BA99CA998AF8FAB38
S11314908FA998AD0197F1F798AF8FAB62E08EE119
S11314A00E94940F80E090E0A0E8BFE38D839E83C8
S11314B0AF83B88720E030E04AE755E46D817E8150
S11314C08F8198850E949813DC01CB018DA39EA384
S11314D0AFA3B8A720E030E040E85FE36DA17EA1B0
S11314E08FA198A50E94241288232CF481E090E017
S11314F09AA789A73FC020E03FEF4FE757E46DA1CB
S11315007EA18FA198A50E94931318164CF520E094
S113151030E040E251E46D817E818F8198850E94A4
S11315209813DC01CB01BC01CD010E949B12DC01AC
S1131530CB019AA789A70FC080E991E09CA78BA74C
S11315408BA59CA50197F1F79CA78BA789A59AA5C4
S113155001979AA789A789A59AA5892B69F714C029
S11315606DA17EA18FA198A50E949B12DC01CB01E5
S11315709AA789A789A59AA59EA78DA78DA59EA59B
S11315800197F1F79EA78DA78BE390E029AD222F59
S113159030E022953295307F3227207F3227422F48
S11315A02BE330E0F90120812F70242BFC012083F0
S11315B061E08EE10E94940F80E090E0A0E8BFE338
S11315C089879A87AB87BC8720E030E04AE755E4F7
S11315D069857A858B859C850E949813DC01CB01F3
S11315E08B8F9C8FAD8FBE8F20E030E040E85FE3AF
S11315F06B8D7C8D8D8D9E8D0E94241288232CF4FE
S113160081E090E098A38F8F3FC020E03FEF4FE749
S113161057E46B8D7C8D8D8D9E8D0E9493131816CF
S11316204CF520E030E040E251E469857A858B8511
S11316309C850E949813DC01CB01BC01CD010E9462
S11316409B12DC01CB0198A38F8F0FC080E991E03E
S11316509AA389A389A19AA10197F1F79AA389A3CF
S11316608F8D98A1019798A38F8F8F8D98A1892B27
S113167069F714C06B8D7C8D8D8D9E8D0E949B129D
S1131680DC01CB0198A38F8F8F8D98A19CA38BA392
S11316908BA19CA10197F1F79CA38BA362E08EE13F
S11316A00E94940F80E090E0A0EAB0E48D879E87CA
S11316B0AF87B88B20E030E04AE755E46D857E853E
S11316C08F8598890E949813DC01CB01898B9A8BB2
S11316D0AB8BBC8B20E030E040E85FE369897A891A
S11316E08B899C890E94241288232CF481E090E049
S11316F09E8B8D8B3FC020E03FEF4FE757E4698915
S11317007A898B899C890E94931318164CF520E0E2
S113171030E040E251E46D857E858F8598890E9492
S11317209813DC01CB01BC01CD010E949B12DC01AA
S1131730CB019E8B8D8B0FC080E991E0988F8F8BAE
S11317408F89988D0197F1F7988F8F8B8D899E895A
S113175001979E8B8D8B8D899E89892B69F714C087
S113176069897A898B899C890E949B12DC01CB014F
S11317709E8B8D8B8D899E899A8F898F898D9A8D69
S11317800197F1F79A8F898F0000E9960FB6F894C4
S1131790DEBF0FBECDBFDF91CF910895CF93DF930E
S11317A0CDB7DEB7E9970FB6F894DEBF0FBECDBF55
S11317B089AF62E08FE10E94940F8BE390E029AD42
S11317C0422F407F2BE330E0F90120812F70242B3E
S11317D0FC01208361E08EE10E94940F80E090E0A0
S11317E0A0E8BFE389839A83AB83BC8320E030E025
S11317F04AE755E469817A818B819C810E94981320
S1131800DC01CB018FA798ABA9ABBAAB20E030E0E9
S113181040E85FE36FA578A989A99AA90E942412D8
S113182088232CF481E090E09CAB8BAB3FC020E09C
S11318303FEF4FE757E46FA578A989A99AA90E94B9
S1131840931318164CF520E030E040E251E469812E
S11318507A818B819C810E949813DC01CB01BC01AD
S1131860CD010E949B12DC01CB019CAB8BAB0FC062
S113187080E991E09EAB8DAB8DA99EA90197F1F70C
S11318809EAB8DAB8BA99CA901979CAB8BAB8BA911
S11318909CA9892B69F714C06FA578A989A99AA96D
S11318A00E949B12DC01CB019CAB8BAB8BA99CA946
S11318B098AF8FAB8FA998AD0197F1F798AF8FAB25
S11318C062E08EE10E94940F80E090E0A0E8BFE324
S11318D08D839E83AF83B88720E030E04AE755E4E8
S11318E06D817E818F8198850E949813DC01CB01E4
S11318F08DA39EA3AFA3B8A720E030E040E85FE348
S11319006DA17EA18FA198A50E94241288232CF496
S113191081E090E09AA789A73FC020E03FEF4FE71E
S113192057E46DA17EA18FA198A50E949313181668
S11319304CF520E030E040E251E46D817E818F81FE
S113194098850E949813DC01CB01BC01CD010E9453
S11319509B12DC01CB019AA789A70FC080E991E013
S11319609CA78BA78BA59CA50197F1F79CA78BA798
S113197089A59AA501979AA789A789A59AA5892BCC
S113198069F714C06DA17EA18FA198A50E949B1236
S1131990DC01CB019AA789A789A59AA59EA78DA743
S11319A08DA59EA50197F1F79EA78DA78BE390E0E7
S11319B029AD222F30E022953295307F3227207FC7
S11319C03227422F2BE330E0F90120812F70242BA2
S11319D0FC01208361E08EE10E94940F80E090E09E
S11319E0A0E8BFE389879A87AB87BC8720E030E013
S11319F04AE755E469857A858B859C850E9498130E
S1131A00DC01CB018B8F9C8FAD8FBE8F20E030E04B
S1131A1040E85FE36B8D7C8D8D8D9E8D0E9424123A
S1131A2088232CF481E090E098A38F8F3FC020E0BE
S1131A303FEF4FE757E46B8D7C8D8D8D9E8D0E941B
S1131A40931318164CF520E030E040E251E4698528
S1131A507A858B859C850E949813DC01CB01BC019F
S1131A60CD010E949B12DC01CB0198A38F8F0FC084
S1131A7080E991E09AA389A389A19AA10197F1F73A
S1131A809AA389A38F8D98A1019798A38F8F8F8D87
S1131A9098A1892B69F714C06B8D7C8D8D8D9E8DDB
S1131AA00E949B12DC01CB0198A38F8F8F8D98A18C
S1131AB09CA38BA38BA19CA10197F1F79CA38BA35F
S1131AC062E08EE10E94940F80E090E0A0EAB0E42E
S1131AD08D879E87AF87B88B20E030E04AE755E4D6
S1131AE06D857E858F8598890E949813DC01CB01D2
S1131AF0898B9A8BAB8BBC8B20E030E040E85FE3B2
S1131B0069897A898B899C890E94241288232CF400
S1131B1081E090E09E8B8D8B3FC020E03FEF4FE74C
S1131B2057E469897A898B899C890E9493131816D2
S1131B304CF520E030E040E251E46D857E858F85F0
S1131B4098890E949813DC01CB01BC01CD010E944D
S1131B509B12DC01CB019E8B8D8B0FC080E991E041
S1131B60988F8F8B8F89988D0197F1F7988F8F8B32
S1131B708D899E8901979E8B8D8B8D899E89892B5A
S1131B8069F714C069897A898B899C890E949B12A0
S1131B90DC01CB019E8B8D8B8D899E899A8F898FD9
S1131BA0898D9A8D0197F1F79A8F898F0000E996B4
S1131BB00FB6F894DEBF0FBECDBFDF91CF9108956D
S1131BC0CF93DF9300D01F92CDB7DEB79B838A8378
S1131BD019820EC08981882F90E02A813B81820F6F
S1131BE0931FFC0180810E94BC0989818F5F8983D6
S1131BF08981882F90E02A813B81820F931FFC0109
S1131C008081882F90E0892B29F700000F900F9096
S1131C100F90DF91CF910895CF93DF93CDB7DEB7C7
S1131C2068970FB6F894DEBF0FBECDBF6D8B7E8B69
S1131C308F8B988F20E030E0A9016D897E898F8990
S1131C40988D0E942412882321F480E30E94BC0909
S1131C5021C0888D8F938F898F938E898F938D89DF
S1131C608F938FE890E0892F8F938FE890E08F9384
S1131C70CE0101969F938F930E943D1A8DB79EB714
S1131C8008960FB6F894DEBF0FBECDBFCE01019605
S1131C900E94E00D000068960FB6F894DEBF0FBEF8
S1131CA0CDBFDF91CF910895CF93DF93CDB7DEB74A
S1131CB081E00E94CE0B0000DF91CF910895CF9375
S1131CC0DF9300D000D0CDB7DEB78B836C8380E880
S1131CD0898380EC8A838B81882F90E09E012F5F1B
S1131CE03F4F820F931FFC0190818C81890F0E94CA
S1131CF0CE0B00000F900F900F900F90DF91CF91BB
S1131D000895CF93DF93CDB7DEB788E10E94CE0B61
S1131D100000DF91CF910895CF93DF9300D000D0DE
S1131D20CDB7DEB78B836C839B818DEC989F812D1F
S1131D301124869586958695880F282F220F220FC9
S1131D40820F292F281B822F89839B818DEC989FDA
S1131D50812D11248695869586958A838C81882F7A
S1131D6090E08130910521F0029709F469C0D4C054
S1131D708A81882F90E08230910511F1833091059A
S1131D801CF4019741F05BC08330910571F1049715
S1131D9009F440C054C08AE390E02AE330E0F9013A
S1131DA02081622F2981422F50E021E030E002C0DF
S1131DB0220F331F4A95E2F7262BFC0120833FC0F4
S1131DC087E390E027E330E0F9012081622F298145
S1131DD0422F50E021E030E002C0220F331F4A9529
S1131DE0E2F7262BFC0120832AC084E390E024E35D
S1131DF030E0F9012081622F2981422F50E021E057
S1131E0030E002C0220F331F4A95E2F7262BFC0173
S1131E10208315C081E390E021E330E0F9012081C3
S1131E20622F2981422F50E021E030E002C0220FCE
S1131E30331F4A95E2F7262BFC01208300006CC077
S1131E408A81882F90E08230910519F183309105C1
S1131E501CF4019741F05FC08330910581F1049730
S1131E6009F443C058C08AE390E02AE330E0F90162
S1131E702081622F2981422F50E021E030E002C00E
S1131E80220F331F4A95E2F720952623FC01208375
S1131E9042C087E390E027E330E0F9012081622F1C
S1131EA02981422F50E021E030E002C0220F331F8D
S1131EB04A95E2F720952623FC0120832CC084E375
S1131EC090E024E330E0F9012081622F2981422F40
S1131ED050E021E030E002C0220F331F4A95E2F7C0
S1131EE020952623FC01208316C081E390E021E3A2
S1131EF030E0F9012081622F2981422F50E021E056
S1131F0030E002C0220F331F4A95E2F720952623C2
S1131F10FC0120830000000000000F900F900F9040
S1131F200F90DF91CF910895CF93DF9300D000D02D
S1131F30CDB7DEB78B836C839B818DEC989F812D0D
S1131F401124869586958695880F282F220F220FB7
S1131F50820F292F281B822F89839B818DEC989FC8
S1131F60812D11248695869586958A838C81882F68
S1131F7090E08130910521F0029709F469C0D4C042
S1131F808A81882F90E08230910511F18330910588
S1131F901CF4019741F05BC08330910571F1049703
S1131FA009F440C054C08BE390E02BE330E0F90126
S1131FB02081622F2981422F50E021E030E002C0CD
S1131FC0220F331F4A95E2F7262BFC0120833FC0E2
S1131FD088E390E028E330E0F9012081622F298131
S1131FE0422F50E021E030E002C0220F331F4A9517
S1131FF0E2F7262BFC0120832AC085E390E025E349
S113200030E0F9012081622F2981422F50E021E044
S113201030E002C0220F331F4A95E2F7262BFC0161
S1132020208315C082E390E022E330E0F9012081AF
S1132030622F2981422F50E021E030E002C0220FBC
S1132040331F4A95E2F7262BFC01208300006CC065
S11320508A81882F90E08230910519F183309105AF
S11320601CF4019741F05FC08330910581F104971E
S113207009F443C058C08BE390E02BE330E0F9014E
S11320802081622F2981422F50E021E030E002C0FC
S1132090220F331F4A95E2F720952623FC01208363
S11320A042C088E390E028E330E0F9012081622F08
S11320B02981422F50E021E030E002C0220F331F7B
S11320C04A95E2F720952623FC0120832CC085E362
S11320D090E025E330E0F9012081622F2981422F2D
S11320E050E021E030E002C0220F331F4A95E2F7AE
S11320F020952623FC01208316C082E390E022E38E
S113210030E0F9012081622F2981422F50E021E043
S113211030E002C0220F331F4A95E2F720952623B0
S1132120FC0120830000000000000F900F900F902E
S11321300F90DF91CF910895CF93DF9300D000D01B
S1132140CDB7DEB78C839C818DEC989F812D1124B3
S1132150869586958695880F282F220F220F820F49
S1132160292F281B822F8A839C818DEC989F812D97
S113217011248695869586958B8319828B81882F69
S113218090E082309105E9F0833091051CF40197C9
S113219039F04AC08330910529F10497A1F144C074
S11321A089E390E0FC018081882F90E02A81222F2E
S11321B030E002C0959587952A95E2F7817089836E
S11321C033C086E390E0FC018081882F90E02A816F
S11321D0222F30E002C0959587952A95E2F7817009
S11321E0898322C083E390E0FC018081882F90E002
S11321F02A81222F30E002C0959587952A95E2F72F
S11322008170898311C080E390E0FC018081882F74
S113221090E02A81222F30E002C0959587952A9577
S1132220E2F781708983000089810F900F900F90ED
S11322300F90DF91CF910895CF93DF9300D000D01A
S1132240CDB7DEB78B836C839B818DEC989F812DFA
S11322501124869586958695880F282F220F220FA4
S1132260820F292F281B822F89839B818DEC989FB5
S1132270812D11248695869586958A838C81882F55
S113228090E08130910521F0029709F469C0D4C02F
S11322908A81882F90E08230910511F18330910575
S11322A01CF4019741F05BC08330910571F10497F0
S11322B009F440C054C08BE390E02BE330E0F90113
S11322C02081622F2981422F50E021E030E002C0BA
S11322D0220F331F4A95E2F7262BFC0120833FC0CF
S11322E088E390E028E330E0F9012081622F29811E
S11322F0422F50E021E030E002C0220F331F4A9504
S1132300E2F7262BFC0120832AC085E390E025E335
S113231030E0F9012081622F2981422F50E021E031
S113232030E002C0220F331F4A95E2F7262BFC014E
S1132330208315C082E390E022E330E0F90120819C
S1132340622F2981422F50E021E030E002C0220FA9
S1132350331F4A95E2F7262BFC01208300006CC052
S11323608A81882F90E08230910519F1833091059C
S11323701CF4019741F05FC08330910581F104970B
S113238009F443C058C08BE390E02BE330E0F9013B
S11323902081622F2981422F50E021E030E002C0E9
S11323A0220F331F4A95E2F720952623FC01208350
S11323B042C088E390E028E330E0F9012081622FF5
S11323C02981422F50E021E030E002C0220F331F68
S11323D04A95E2F720952623FC0120832CC085E34F
S11323E090E025E330E0F9012081622F2981422F1A
S11323F050E021E030E002C0220F331F4A95E2F79B
S113240020952623FC01208316C082E390E022E37A
S113241030E0F9012081622F2981422F50E021E030
S113242030E002C0220F331F4A95E2F7209526239D
S1132430FC0120830000000000000F900F900F901B
S11324400F90DF91CF9108950E940E1308F481E05C
S113245008950E943D120C9459130E94521358F08F
S11324600E944B1340F029F45F3F29F00C9432137F
S113247051110C948D130C9438130E946A1368F351
S11324809923B1F3552391F3951B550BBB27AA2729
S113249062177307840738F09F5F5F4F220F331F63
S11324A0441FAA1FA9F335D00E2E3AF0E0E832D02B
S11324B091505040E695001CCAF72BD0FE2F29D02E
S11324C0660F771F881FBB1F261737074807AB0700
S11324D0B0E809F0BB0B802DBF01FF2793585F4F75
S11324E03AF09E3F510578F00C9432130C948D13FE
S11324F05F3FE4F3983ED4F3869577956795B79557
S1132500F7959F5FC9F7880F911D9695879597F961
S11325100895E1E0660F771F881FBB1F62177307DA
S11325208407BA0720F0621B730B840BBA0BEE1FEF
S113253088F7E09508950E94721388F09F5798F0E9
S1132540B92F9927B751B0F0E1F0660F771F881FB4
S1132550991F1AF0BA95C9F714C0B13091F00E94CE
S11325608C13B1E008950C948C13672F782F88276F
S1132570B85F39F0B93FCCF3869577956795B395F5
S1132580D9F73EF490958095709561957F4F8F4F64
S11325909F4F089597FB16F40E943B130C94D1129D
S11325A0E894F92F96EBFF2381F012161306140614
S11325B0440B9395F6958795779567955795404085
S11325C0FF23B9F71BC099270895882351F4985025
S11325D0D2F7872B762F652F542F432F322F20E0ED
S11325E0B1F3121613061406440B88233AF09A9595
S11325F0440F551F661F771F881FCAF755234AF4D7
S1132600440F551F11F460FF04C06F5F7F4F8F4F5D
S11326109F4F880F9695879597F90895990F00080D
S1132620550FAA0BE0E8FEEF16161706E807F907A0
S1132630C0F012161306E407F50798F0621B730B3B
S1132640840B950B39F40A2661F0232B242B252BBC
S113265021F408950A2609F4A140A6958FEF811D5F
S1132660811D089597F99F6780E870E060E0089500
S11326709FEF80EC089590958095709560955095A6
S11326804095309521953F4F4F4F5F4F6F4F7F4F90
S11326908F4F9F4F089500240A94161617061806A4
S11326A00906089500240A94121613061406050652
S11326B00895092E0394000C11F4882352F0BB0FE3
S11326C040F4BF2B11F460FF04C06F5F7F4F8F4F46
S11326D09F4F089557FD9058440F551F59F05F3F81
S11326E071F04795880F97FB991F61F09F3F79F030
S11326F087950895121613061406551FF2CF4695B2
S1132700F1DF08C0161617061806991FF1CF869533
S11327107105610508940895E894BB276627772717
S1132720CB0197F908950E940E1308F48FEF0895D2
S11327300E94AB130C9459130E944B1338F00E945F
S1132740521320F0952311F00C9432130C94381387
S113275011240C948D130E946A1370F3959FC1F396
S1132760950F50E0551F629FF001729FBB27F00D3B
S1132770B11D639FAA27F00DB11DAA1F649F662790
S1132780B00DA11D661F829F2227B00DA11D621FDF
S1132790739FB00DA11D621F839FA00D611D221F99
S11327A0749F3327A00D611D231F849F600D211D7D
S11327B0822F762F6A2F11249F5750409AF0F1F000
S11327C088234AF0EE0FFF1FBB1F661F771F881F69
S11327D091505040A9F79E3F510580F00C9432135C
S11327E00C948D135F3FE4F3983ED4F3869577956C
S11327F06795B795F795E7959F5FC1F7FE2B880F0F
S1132800911D9695879597F90895A0E1B0E0EBE0C6
S1132810F4E10C947B187C011B016A01FC01178212
S11328201682838181FF44C39E012F5F3F4F39018C
S1132830F7019381F10193FD859193FF81911F012C
S1132840882309F431C3853239F493FD859193FFCC
S113285081911F01853239F4B70190E00E94011A79
S113286056016501E5CF10E0512C912CFFE1F915DB
S1132870D8F08B3279F038F4803279F08332A1F4D5
S1132880F92DF0612EC08D3261F0803369F4292D69
S113289021602DC0392D3260932E892D8460982EAD
S11328A02AC0E92DE86015C097FC2DC020ED280F43
S11328B02A3088F496FE06C03AE0139F200D1124B6
S11328C0122F19C08AE0589E200D1124522EE92D92
S11328D0E0629E2E10C08E3231F496FCE5C2F92DD2
S11328E0F0649F2E08C08C3621F4292D2068922E86
S11328F002C0883641F4F10193FD859193FF8191E3
S11329001F018111B3CF9BEB980F933020F4992DC5
S11329109061805E07C09BE9980F933008F066C110
S1132920992D9F7E96FF16E09F73992E853619F494
S11329309064992E08C0863621F4392F3068932E7E
S113294002C01111115097FE07C01C3350F44424E7
S11329504394410E27E00BC0183038F027E017E00D
S113296005C027E09CE3492E02C0212F412C5601CB
S113297084E0A80EB11CF60160817181828193818B
S1132980042DA3010E94E8186C01F981FC87F0FF73
S113299002C0F3FF06C091FC06C092FE06C000E22E
S11329A005C00DE203C00BE201C000E08C858C7011
S11329B019F001115AC29BC297FE10C04C0CFC8541
S11329C0F4FF04C08A81813309F44A94141474F521
S11329D028E0241578F588E0482E2CC096FC2AC0FF
S11329E0812F90E08C159D059CF03CEFC3163FEFC2
S11329F0D30674F0892D8068982E0AC0E2E0F0E0D6
S1132A00EC0FFD1FE10FF11D8081803319F411508B
S1132A101111F4CF97FE0EC044244394410E812F2C
S1132A2090E0C816D9062CF41C1904C0442443941D
S1132A3001C010E097FE06C01C141D0434F4C60146
S1132A40019605C085E090E002C081E090E00111AC
S1132A500196112331F0212F30E02F5F3F4F820F79
S1132A60931F252D30E08217930714F4581A01C0E0
S1132A70512C892D897049F4552039F0B70180E231
S1132A8090E00E94011A5A94F7CF002329F0B7016D
S1132A90802F90E00E94011A93FC09C0552039F060
S1132AA0B70180E390E00E94011A5A94F7CF97FE91
S1132AB04CC04601D7FE02C0812C912CC601881956
S1132AC09909F301E80FF91FFE87ED879601241990
S1132AD03109388B2F87012F10E0119501951109C9
S1132AE03FEF8316930629F4B7018EE290E00E942B
S1132AF0011AC814D9044CF08F8598898815990552
S1132B0024F4ED85FE85818101C080E3F1E08F1A14
S1132B1091082D853E852F5F3F4F3E872D87801678
S1132B2091062CF0B70190E00E94011AD9CFC81485
S1132B30D90441F49A81963320F4953319F43C85F1
S1132B4034FF81E3B70190E04EC08A81813319F0EC
S1132B509C859F7E9C87B70190E00E94011A111109
S1132B6005C094FC18C085E690E017C0B7018EE25A
S1132B7090E00E94011A1E5F82E001E0080FF30159
S1132B80E80FF11D8081B70190E00E94011A802FA7
S1132B900113F3CFE6CF85E490E0B7010E94011A58
S1132BA0D7FC06C0C114D10441F4EC85E4FF05C090
S1132BB0D194C194D1088DE201C08BE2B70190E0B9
S1132BC00E94011A80E32AE0C216D1042CF08F5F20
S1132BD0FAE0CF1AD108F7CFB70190E00E94011AAA
S1132BE0B701C601C0960E94011A54C1833631F060
S1132BF0833779F0833509F056C020C0560132E09E
S1132C00A30EB11CF6018081898301E010E0630109
S1132C1012C05601F2E0AF0EB11CF601C080D180A3
S1132C2096FE03C0612F70E002C06FEF7FEFC60114
S1132C300E94E6198C01F92DFF7714C0560122E099
S1132C40A20EB11CF601C080D18096FE03C0612F94
S1132C5070E002C06FEF7FEFC6010E94C0198C01C3
S1132C60F92DF0689F2EF3FD1AC0852D90E008170A
S1132C701907A8F4B70180E290E00E94011A5A945F
S1132C80F4CFF60197FC859197FE81916F01B7010E
S1132C9090E00E94011A51105A9401501109011533
S1132CA0110579F7F7C0843611F0893661F55601BC
S1132CB097FE09C024E0A20EB11CF6016081718167
S1132CC0828193810AC0F2E0AF0EB11CF6016081EB
S1132CD07181072E000C880B990BF92DFF769F2E1E
S1132CE097FF09C090958095709561957F4F8F4FA0
S1132CF09F4FF0689F2E2AE030E0A3010E945F1AE4
S1132D00C82EC6183FC0092D853721F40F7E2AE04E
S1132D1030E01DC0097F8F3691F018F4883559F0E2
S1132D20C3C0803719F0883711F0BEC0006104FFBA
S1132D3009C0046007C094FE08C0066006C028E00D
S1132D4030E005C020E130E002C020E132E056016D
S1132D5007FF09C084E0A80EB11CF60160817181EF
S1132D608281938108C0F2E0AF0EB11CF60160814C
S1132D70718180E090E0A3010E945F1AC82EC618FA
S1132D800F77902E96FE0BC0092D0E7FC11650F4BE
S1132D9094FE0AC092FC08C0092D0E7E05C0DC2CEE
S1132DA0092D03C0DC2C01C0D12E04FF0DC0FE018F
S1132DB0EC0DF11D8081803311F4097E09C002FFFE
S1132DC006C0D394D39404C0802F867809F0D3949A
S1132DD003FD11C000FF06C01C2DD51480F4150D91
S1132DE01D190DC0D51458F4B70180E290E00E947B
S1132DF0011AD394F7CFD51410F45D1801C0512CE7
S1132E0004FF10C0B70180E390E00E94011A02FFA2
S1132E1017C001FD03C088E790E002C088E590E098
S1132E20B7010CC0802F867859F001FF02C08BE2F5
S1132E3001C080E207FD8DE2B70190E00E94011A13
S1132E40C11638F4B70180E390E00E94011A1150D2
S1132E50F7CFCA94F301EC0DF11D8081B70190E026
S1132E600E94011AC110F5CF15C0F4E0F51560F504
S1132E7084E0581A93FE1FC0011127C02C8523FF3C
S1132E802AC004E510E0392D3071932EF8018491A5
S1132E90811124C0552009F4E4CCB70180E290E00C
S1132EA00E94011A5A94F6CFF7018681978126C0B1
S1132EB08FEF9FEF23C0B70180E290E00E94011AD8
S1132EC05A945110F8CFD8CF512CB701802F90E0ED
S1132ED00E94011AD3CF08E510E0D5CF911080529B
S1132EE0B70190E00E94011A0F5F1F4FCFCF23E07C
S1132EF0251510F483E0BDCF512CC0CF6096E2E1DC
S1132F000C949718DF93CF931F930F939A9DF02DF2
S1132F10219FF00D8B9DF00D8A9DE02DF10D039FF7
S1132F20F00D029FE00DF11D4E9DE00DF11D5E9D23
S1132F30F00D4F9DF00D7F936F93BF92AF925F930F
S1132F404F93D5010E94D9188B01AC01D7010E947F
S1132F50D918EB01E80FF91FD6010E94D2172F915F
S1132F603F91D6010E94D918C60FD71FE81FF91F39
S1132F70AF91BF910E94D2172F913F910E94D9180F
S1132F80C60FD71FE81FF91FD6010E94D918E60FF4
S1132F90F71F9801BE01CF0111240F911F91CF910A
S1132FA0DF9108950E94D918460F571FC81FD91FD3
S1132FB008F431960895689401C0E894F92FF12B30
S1132FC012F00C940F18A0E0B0E0E9EEF7E10C94D5
S1132FD08118092E059422F40E946B18112392F48F
S1132FE0F0E80F26FFEFE094F09400951095B0946C
S1132FF0C094D094A194BF0ACF0ADF0AEF0AFF0A53
S11330000F0B1F0B0E941A1807FC0E946B18CDB7F8
S1133010DEB7ECE00C949D18689401C0E8948F929C
S11330209F92CF93DF930E941A18DF91CF919F90C4
S11330308F90089588249924F401E401B0E49F93C7
S1133040AA279A158B049C04ED05FE05CF05D0072D
S1133050A10798F4AD2FDC2FCF2FFE2FE92D982C4C
S1133060892E982F872F762F652F542F432F322F99
S11330702227B85031F7BF9127C01B2EBF91BB2721
S1133080220F331F441F551F661F771F881F991F68
S1133090881C991CEE1FFF1FCC1FDD1FAA1FBB1F1E
S11330A08A149B04EC05FD05CE05DF05A007B107D6
S11330B048F08A189B08EC09FD09CE09DF09A00B2A
S11330C0B10B21601A94E1F62EF49401AF01BE0114
S11330D0CD01000C0895609570958095909530957C
S11330E04095509521953F4F4F4F5F4F6F4F7F4F06
S11330F08F4F9F4F08952F923F924F925F926F92FE
S11331007F928F929F92AF92BF92CF92DF92EF9273
S1133110FF920F931F93CF93DF93CDB7DEB7CA1BF4
S1133120DB0B0FB6F894DEBF0FBECDBF09942A881F
S1133130398848885F846E847D848C849B84AA84C7
S1133140B984C884DF80EE80FD800C811B81AA8154
S1133150B981CE0FD11D0FB6F894DEBF0FBECDBF1F
S1133160ED0108952A0D3B1D4C1D5D1D6E1D7F1D37
S1133170801F911F08952A193B094C095D096E09A6
S11331807F09800B910B08952A153B054C055D05BD
S11331906E057F058007910708950024A7FD00941C
S11331A02A17300540055005600570058005900517
S11331B00895A29FB001B39FC001A39F700D811D0C
S11331C01124911DB29F700D811D1124911D08952C
S11331D0283008F027E03327DA01990F311D87FDE5
S11331E0916000966105710539F432602E5F3D935C
S11331F030E32A95E1F708959F3F30F08038710558
S1133200610509F03C5F3C5F3D93913008F08068B4
S1133210911DDF93CF931F930F93FF92EF92192F7A
S1133220987F9695E92F96959695E90FFF27EA548E
S1133230FF4F99273327EE24FF24A701E7010590C8
S11332400894079428F4360FE71EF81E491F511DF1
S1133250660F771F881F991F0694A1F7059007949E
S113326028F4E70EF81E491F561FC11D770F881F4B
S1133270991F661F0694A1F70590079428F4F80E89
S1133280491F561FC71FD11D880F991F661F771F1F
S11332900694A1F70590079420F4490F561FC71F01
S11332A0D81F990F661F771F881F0694A9F784916A
S11332B01095177041F0D695C79557954795F79493
S11332C0E7941A95C1F7ECE5F0E068941590159130
S11332D035916591959105907FE27395E118F10A16
S11332E0430B560BC90BD009C0F7E10CF11E431F69
S11332F0561FC91FD01D7EF4703311F48A95E6CF92
S1133300E894015030F0080F0AF40027021708F47B
S1133310202F2395022F7A3328F079E37D932A9581
S1133320E9F710C07D932A9589F6069497956795D9
S1133330379517951794E118F10A430B560BC90BEF
S1133340D00998F023957E9173957A3308F070E351
S11333507C932013B8F77E9170617D9330F0839550
S113336071E37D9370E32A95E1F71124EF90FF90C8
S11333700F911F91CF91DF91992787FD9095089523
S1133380FC010590615070400110D8F7809590952C
S11333908E0F9F1F0895DC0101C06D934150504072
S11333A0E0F70895FB01DC010D900020E9F7119787
S11333B001900D920020E1F70895FC010190002096
S11333C0E9F7809590958E0F9F1F0895FC01615039
S11333D0704001900110D8F7809590958E0F9F1F33
S11333E00895DC01FC01672F71917723E1F732978F
S11333F004C07C916D9370836291AE17BF07C8F3CC
S113340008950F931F93CF93DF93FB01238121FD35
S113341003C08FEF9FEF2CC022FF16C04681578157
S1133420248135814217530744F4A081B1819D0161
S11334302F5F3F4F318320838C93268137812F5F09
S11334403F4F3783268314C08B01EC01FB010084BA
S1133450F185E02D0995892BE1F6D80116968D9119
S11334609C911797019617969C938E931697CE016D
S1133470DF91CF911F910F910895AEE0B0E0E3E4A6
S1133480FAE10C9489180D891E8986E08C831A83CD
S113349009838FEF9FE79E838D83AE01475E5F4F65
S11334A06F89788DCE0101960E940514EF81F8850D
S11334B0E00FF11F10822E96E4E00C94A518FA0197
S11334C0AA27283051F1203181F1E8946F936E7F5F
S11334D06E5F7F4F8F4F9F4FAF4FB1E03ED0B4E050
S11334E03CD0670F781F891F9A1FA11D680F791F91
S11334F08A1F911DA11D6A0F711D811D911DA11DA2
S113350020D009F468943F912AE0269F11243019B1
S1133510305D3193DEF6CF010895462F4770405D4C
S11335204193B3E00FD0C9F7F6CF462F4F70405DFB
S11335304A3318F0495D31FD4052419302D0A9F756
S1133540EACFB4E0A6959795879577956795BA9550
S1133550C9F700976105710508959B01AC010A2E16
S113356006945795479537952795BA95C9F7620FED
S1113570731F841F951FA01D0895F894FFCFAC
S113357E014869203A290053696D706C65204361D6
S113358E6C63756C61746F72203B29002B000037DD
S113359E38392F3435362A3132332D43303D2B25ED
S10935AE2E326C660000E1
S9030000FC
